{"abi":[{"type":"function","name":"MAX_METADATA_LENGTH","inputs":[],"outputs":[{"name":"","type":"uint256","internalType":"uint256"}],"stateMutability":"view"},{"type":"function","name":"commitMerkleRoot","inputs":[{"name":"merkleRoot","type":"bytes32","internalType":"bytes32"},{"name":"metadata","type":"string","internalType":"string"}],"outputs":[],"stateMutability":"nonpayable"},{"type":"function","name":"commitments","inputs":[{"name":"","type":"bytes32","internalType":"bytes32"}],"outputs":[{"name":"merkleRoot","type":"bytes32","internalType":"bytes32"},{"name":"committer","type":"address","internalType":"address"},{"name":"blockNumber","type":"uint256","internalType":"uint256"},{"name":"timestamp","type":"uint256","internalType":"uint256"},{"name":"metadata","type":"string","internalType":"string"}],"stateMutability":"view"},{"type":"function","name":"getCommitment","inputs":[{"name":"merkleRoot","type":"bytes32","internalType":"bytes32"}],"outputs":[{"name":"","type":"tuple","internalType":"struct MerkleRootRegistry.Commitment","components":[{"name":"merkleRoot","type":"bytes32","internalType":"bytes32"},{"name":"committer","type":"address","internalType":"address"},{"name":"blockNumber","type":"uint256","internalType":"uint256"},{"name":"timestamp","type":"uint256","internalType":"uint256"},{"name":"metadata","type":"string","internalType":"string"}]}],"stateMutability":"view"},{"type":"function","name":"getUserCommitmentCount","inputs":[{"name":"user","type":"address","internalType":"address"}],"outputs":[{"name":"","type":"uint256","internalType":"uint256"}],"stateMutability":"view"},{"type":"function","name":"getUserCommitments","inputs":[{"name":"user","type":"address","internalType":"address"}],"outputs":[{"name":"","type":"bytes32[]","internalType":"bytes32[]"}],"stateMutability":"view"},{"type":"function","name":"isCommitted","inputs":[{"name":"merkleRoot","type":"bytes32","internalType":"bytes32"}],"outputs":[{"name":"","type":"bool","internalType":"bool"}],"stateMutability":"view"},{"type":"function","name":"updateMetadata","inputs":[{"name":"merkleRoot","type":"bytes32","internalType":"bytes32"},{"name":"newMetadata","type":"string","internalType":"string"}],"outputs":[],"stateMutability":"nonpayable"},{"type":"function","name":"userCommitments","inputs":[{"name":"","type":"address","internalType":"address"},{"name":"","type":"uint256","internalType":"uint256"}],"outputs":[{"name":"","type":"bytes32","internalType":"bytes32"}],"stateMutability":"view"},{"type":"event","name":"MerkleRootCommitted","inputs":[{"name":"merkleRoot","type":"bytes32","indexed":true,"internalType":"bytes32"},{"name":"committer","type":"address","indexed":true,"internalType":"address"},{"name":"blockNumber","type":"uint256","indexed":true,"internalType":"uint256"},{"name":"metadata","type":"string","indexed":false,"internalType":"string"}],"anonymous":false},{"type":"event","name":"MetadataUpdated","inputs":[{"name":"merkleRoot","type":"bytes32","indexed":true,"internalType":"bytes32"},{"name":"oldMetadata","type":"string","indexed":false,"internalType":"string"},{"name":"newMetadata","type":"string","indexed":false,"internalType":"string"}],"anonymous":false},{"type":"error","name":"CommitmentDoesNotExist","inputs":[{"name":"merkleRoot","type":"bytes32","internalType":"bytes32"}]},{"type":"error","name":"MerkleRootAlreadyCommitted","inputs":[{"name":"merkleRoot","type":"bytes32","internalType":"bytes32"}]},{"type":"error","name":"MetadataTooLong","inputs":[{"name":"length","type":"uint256","internalType":"uint256"},{"name":"maxLength","type":"uint256","internalType":"uint256"}]},{"type":"error","name":"OnlyCommitterCanUpdate","inputs":[{"name":"caller","type":"address","internalType":"address"},{"name":"committer","type":"address","internalType":"address"}]}],"bytecode":{"object":"0x608060405234801561001057600080fd5b50610cd2806100206000396000f3fe608060405234801561001057600080fd5b50600436106100935760003560e01c8063839df94511610066578063839df945146101305780639a54684814610154578063a375765e14610175578063daa69b3f14610188578063e8868e9f146101b157600080fd5b8063054765a31461009857806331091d7a146100db5780637795820c146100fb57806381d40f1f1461011b575b600080fd5b6100c66100a63660046107f7565b6000908152602081905260409020600101546001600160a01b0316151590565b60405190151581526020015b60405180910390f35b6100ee6100e936600461082c565b6101ba565b6040516100d2919061084e565b61010e6101093660046107f7565b610226565b6040516100d291906108d8565b61012e61012936600461092b565b61034c565b005b61014361013e3660046107f7565b61052d565b6040516100d29594939291906109a7565b6101676101623660046109e5565b6105f0565b6040519081526020016100d2565b61012e61018336600461092b565b610621565b61016761019636600461082c565b6001600160a01b031660009081526001602052604090205490565b61016761080081565b6001600160a01b03811660009081526001602090815260409182902080548351818402810184019094528084526060939283018282801561021a57602002820191906000526020600020905b815481526020019060010190808311610206575b50505050509050919050565b6102646040518060a001604052806000801916815260200160006001600160a01b031681526020016000815260200160008152602001606081525090565b60008281526020818152604091829020825160a0810184528154815260018201546001600160a01b031692810192909252600281015492820192909252600382015460608201526004820180549192916080840191906102c390610a0f565b80601f01602080910402602001604051908101604052809291908181526020018280546102ef90610a0f565b801561033c5780601f106103115761010080835404028352916020019161033c565b820191906000526020600020905b81548152906001019060200180831161031f57829003601f168201915b5050505050815250509050919050565b6000838152602081905260409020600101546001600160a01b03161561038d57604051635d6442dd60e01b8152600481018490526024015b60405180910390fd5b600082828080601f016020809104026020016040519081016040528093929190818152602001838380828437600092019190915250508251929350505061080010156103fa578051604051634d82db5360e11b815260048101919091526108006024820152604401610384565b60006040518060a00160405280868152602001336001600160a01b0316815260200143815260200142815260200185858080601f0160208091040260200160405190810160405280939291908181526020018383808284376000920182905250939094525050878152602081815260409182902084518155908401516001820180546001600160a01b0319166001600160a01b03909216919091179055908301516002820155606083015160038201556080830151929350839290915060048201906104c69082610aae565b50503360008181526001602081815260408084208054938401815584529220018890555143925087907f695aff077109779d343a3c2db9a2cc84f07b633a59dea3375ec5073b101d89b49061051e9089908990610b97565b60405180910390a45050505050565b6000602081905290815260409020805460018201546002830154600384015460048501805494956001600160a01b03909416949293919261056d90610a0f565b80601f016020809104026020016040519081016040528092919081815260200182805461059990610a0f565b80156105e65780601f106105bb576101008083540402835291602001916105e6565b820191906000526020600020905b8154815290600101906020018083116105c957829003601f168201915b5050505050905085565b6001602052816000526040600020818154811061060c57600080fd5b90600052602060002001600091509150505481565b600083815260208190526040902060018101546001600160a01b031661065d576040516307cd98ab60e51b815260048101859052602401610384565b60018101546001600160a01b031633146106a1576001810154604051633c74d61360e11b81523360048201526001600160a01b039091166024820152604401610384565b600083838080601f0160208091040260200160405190810160405280939291908181526020018383808284376000920191909152505082519293505050610800101561070e578051604051634d82db5360e11b815260048101919091526108006024820152604401610384565b600082600401805461071f90610a0f565b80601f016020809104026020016040519081016040528092919081815260200182805461074b90610a0f565b80156107985780601f1061076d57610100808354040283529160200191610798565b820191906000526020600020905b81548152906001019060200180831161077b57829003601f168201915b5050505050905084848460040191826107b2929190610bab565b50857fc42c4edbc41dce02b01dd098a1f7a4c685c638d7a2fdfbe449b32e1f89fbfae18287876040516107e793929190610c6c565b60405180910390a2505050505050565b60006020828403121561080957600080fd5b5035919050565b80356001600160a01b038116811461082757600080fd5b919050565b60006020828403121561083e57600080fd5b61084782610810565b9392505050565b6020808252825182820181905260009190848201906040850190845b818110156108865783518352928401929184019160010161086a565b50909695505050505050565b6000815180845260005b818110156108b85760208185018101518683018201520161089c565b506000602082860101526020601f19601f83011685010191505092915050565b602081528151602082015260018060a01b03602083015116604082015260408201516060820152606082015160808201526000608083015160a08084015261092360c0840182610892565b949350505050565b60008060006040848603121561094057600080fd5b83359250602084013567ffffffffffffffff8082111561095f57600080fd5b818601915086601f83011261097357600080fd5b81358181111561098257600080fd5b87602082850101111561099457600080fd5b6020830194508093505050509250925092565b85815260018060a01b038516602082015283604082015282606082015260a0608082015260006109da60a0830184610892565b979650505050505050565b600080604083850312156109f857600080fd5b610a0183610810565b946020939093013593505050565b600181811c90821680610a2357607f821691505b602082108103610a4357634e487b7160e01b600052602260045260246000fd5b50919050565b634e487b7160e01b600052604160045260246000fd5b601f821115610aa957600081815260208120601f850160051c81016020861015610a865750805b601f850160051c820191505b81811015610aa557828155600101610a92565b5050505b505050565b815167ffffffffffffffff811115610ac857610ac8610a49565b610adc81610ad68454610a0f565b84610a5f565b602080601f831160018114610b115760008415610af95750858301515b600019600386901b1c1916600185901b178555610aa5565b600085815260208120601f198616915b82811015610b4057888601518255948401946001909101908401610b21565b5085821015610b5e5787850151600019600388901b60f8161c191681555b5050505050600190811b01905550565b81835281816020850137506000828201602090810191909152601f909101601f19169091010190565b602081526000610923602083018486610b6e565b67ffffffffffffffff831115610bc357610bc3610a49565b610bd783610bd18354610a0f565b83610a5f565b6000601f841160018114610c0b5760008515610bf35750838201355b600019600387901b1c1916600186901b178355610c65565b600083815260209020601f19861690835b82811015610c3c5786850135825560209485019460019092019101610c1c565b5086821015610c595760001960f88860031b161c19848701351681555b505060018560011b0183555b5050505050565b604081526000610c7f6040830186610892565b8281036020840152610c92818587610b6e565b969550505050505056fea2646970667358221220057871a5dd1be55440cf3dc36dfab640334f008643d85b44ec99ed111cd485b764736f6c63430008130033","linkReferences":{}},"methodIdentifiers":{"MAX_METADATA_LENGTH()":"e8868e9f","commitMerkleRoot(bytes32,string)":"81d40f1f","commitments(bytes32)":"839df945","getCommitment(bytes32)":"7795820c","getUserCommitmentCount(address)":"daa69b3f","getUserCommitments(address)":"31091d7a","isCommitted(bytes32)":"054765a3","updateMetadata(bytes32,string)":"a375765e","userCommitments(address,uint256)":"9a546848"},"id":0}